{"abi":[{"type":"constructor","inputs":[{"name":"_entranceFee","type":"uint256","internalType":"uint256"},{"name":"interval","type":"uint256","internalType":"uint256"},{"name":"vrfCoordinator","type":"address","internalType":"address"},{"name":"gasLane","type":"bytes32","internalType":"bytes32"},{"name":"subscriptionId","type":"uint256","internalType":"uint256"},{"name":"callbackGasLimit","type":"uint32","internalType":"uint32"}],"stateMutability":"nonpayable"},{"type":"function","name":"acceptOwnership","inputs":[],"outputs":[],"stateMutability":"nonpayable"},{"type":"function","name":"checkUpkeep","inputs":[{"name":"","type":"bytes","internalType":"bytes"}],"outputs":[{"name":"upkeepNeeded","type":"bool","internalType":"bool"},{"name":"","type":"bytes","internalType":"bytes"}],"stateMutability":"view"},{"type":"function","name":"enterRaffle","inputs":[],"outputs":[],"stateMutability":"payable"},{"type":"function","name":"getEntranceFee","inputs":[],"outputs":[{"name":"","type":"uint256","internalType":"uint256"}],"stateMutability":"view"},{"type":"function","name":"getLastTimeStamp","inputs":[],"outputs":[{"name":"","type":"uint256","internalType":"uint256"}],"stateMutability":"view"},{"type":"function","name":"getPlayer","inputs":[{"name":"indexOfPlayer","type":"uint256","internalType":"uint256"}],"outputs":[{"name":"","type":"address","internalType":"address"}],"stateMutability":"view"},{"type":"function","name":"getRaffleState","inputs":[],"outputs":[{"name":"","type":"uint8","internalType":"enum Raffle.RaffleState"}],"stateMutability":"view"},{"type":"function","name":"getRecentWinner","inputs":[],"outputs":[{"name":"","type":"address","internalType":"address"}],"stateMutability":"view"},{"type":"function","name":"owner","inputs":[],"outputs":[{"name":"","type":"address","internalType":"address"}],"stateMutability":"view"},{"type":"function","name":"performUpkeep","inputs":[{"name":"","type":"bytes","internalType":"bytes"}],"outputs":[],"stateMutability":"nonpayable"},{"type":"function","name":"rawFulfillRandomWords","inputs":[{"name":"requestId","type":"uint256","internalType":"uint256"},{"name":"randomWords","type":"uint256[]","internalType":"uint256[]"}],"outputs":[],"stateMutability":"nonpayable"},{"type":"function","name":"s_vrfCoordinator","inputs":[],"outputs":[{"name":"","type":"address","internalType":"contract IVRFCoordinatorV2Plus"}],"stateMutability":"view"},{"type":"function","name":"setCoordinator","inputs":[{"name":"_vrfCoordinator","type":"address","internalType":"address"}],"outputs":[],"stateMutability":"nonpayable"},{"type":"function","name":"transferOwnership","inputs":[{"name":"to","type":"address","internalType":"address"}],"outputs":[],"stateMutability":"nonpayable"},{"type":"event","name":"CoordinatorSet","inputs":[{"name":"vrfCoordinator","type":"address","indexed":false,"internalType":"address"}],"anonymous":false},{"type":"event","name":"OwnershipTransferRequested","inputs":[{"name":"from","type":"address","indexed":true,"internalType":"address"},{"name":"to","type":"address","indexed":true,"internalType":"address"}],"anonymous":false},{"type":"event","name":"OwnershipTransferred","inputs":[{"name":"from","type":"address","indexed":true,"internalType":"address"},{"name":"to","type":"address","indexed":true,"internalType":"address"}],"anonymous":false},{"type":"event","name":"RaffleEntered","inputs":[{"name":"player","type":"address","indexed":true,"internalType":"address"}],"anonymous":false},{"type":"event","name":"RequestedRaffleWinner","inputs":[{"name":"requestId","type":"uint256","indexed":true,"internalType":"uint256"}],"anonymous":false},{"type":"event","name":"WinnerPicked","inputs":[{"name":"winner","type":"address","indexed":true,"internalType":"address"}],"anonymous":false},{"type":"error","name":"OnlyCoordinatorCanFulfill","inputs":[{"name":"have","type":"address","internalType":"address"},{"name":"want","type":"address","internalType":"address"}]},{"type":"error","name":"OnlyOwnerOrCoordinator","inputs":[{"name":"have","type":"address","internalType":"address"},{"name":"owner","type":"address","internalType":"address"},{"name":"coordinator","type":"address","internalType":"address"}]},{"type":"error","name":"Raffle__RaffleNotOpen","inputs":[]},{"type":"error","name":"Raffle__SendMoreToEnterRaffle","inputs":[]},{"type":"error","name":"Raffle__TransferFailed","inputs":[]},{"type":"error","name":"Raffle__UpkeepNotNeeded","inputs":[{"name":"balance","type":"uint256","internalType":"uint256"},{"name":"playersLength","type":"uint256","internalType":"uint256"},{"name":"raffleState","type":"uint256","internalType":"uint256"}]},{"type":"error","name":"ZeroAddress","inputs":[]}],"bytecode":{"object":"0x61012060405234801561001157600080fd5b506040516200131238038062001312833981016040819052610032916101df565b8333806000816100895760405162461bcd60e51b815260206004820152601860248201527f43616e6e6f7420736574206f776e657220746f207a65726f000000000000000060448201526064015b60405180910390fd5b600080546001600160a01b0319166001600160a01b03848116919091179091558116156100b9576100b981610136565b5050506001600160a01b0381166100e35760405163d92e233d60e01b815260040160405180910390fd5b600280546001600160a01b0319166001600160a01b039290921691909117905560e09590955261010093909352426004556080525060a05263ffffffff1660c0526005805460ff60a01b19169055610255565b336001600160a01b0382160361018e5760405162461bcd60e51b815260206004820152601760248201527f43616e6e6f74207472616e7366657220746f2073656c660000000000000000006044820152606401610080565b600180546001600160a01b0319166001600160a01b0383811691821790925560008054604051929316917fed8889f560326eb138920d842192f0eb3dd22b4f139c87a2c57538e05bae12789190a350565b60008060008060008060c087890312156101f857600080fd5b86516020880151604089015191975095506001600160a01b038116811461021e57600080fd5b80945050606087015192506080870151915060a087015163ffffffff8116811461024757600080fd5b809150509295509295509295565b60805160a05160c05160e05161010051611072620002a0600039600061067e01526000818160f1015261032d01526000610560015260006105300152600061050d01526110726000f3fe6080604052600436106100dd5760003560e01c806379ba50971161007f5780639eccacf6116100595780639eccacf614610248578063c1c244e814610268578063e55ae4e81461027d578063f2fde38b1461029d57600080fd5b806379ba5097146101f55780638da5cb5b1461020a5780638ea981171461022857600080fd5b80632cfcc539116100bb5780632cfcc5391461016d5780634585e33b14610175578063473f1ddc146101955780636e04ff0d146101c757600080fd5b806309bc33a7146100e2578063115cbaf5146101245780631fe543e31461014b575b600080fd5b3480156100ee57600080fd5b507f00000000000000000000000000000000000000000000000000000000000000005b6040519081526020015b60405180910390f35b34801561013057600080fd5b50600554600160a01b900460ff1660405161011b9190610cd5565b34801561015757600080fd5b5061016b610166366004610cfd565b6102bd565b005b61016b61032b565b34801561018157600080fd5b5061016b610190366004610d7c565b61044a565b3480156101a157600080fd5b506005546001600160a01b03165b6040516001600160a01b03909116815260200161011b565b3480156101d357600080fd5b506101e76101e2366004610e04565b610676565b60405161011b929190610efb565b34801561020157600080fd5b5061016b610716565b34801561021657600080fd5b506000546001600160a01b03166101af565b34801561023457600080fd5b5061016b610243366004610f1e565b6107c7565b34801561025457600080fd5b506002546101af906001600160a01b031681565b34801561027457600080fd5b50600454610111565b34801561028957600080fd5b506101af610298366004610f4e565b6108eb565b3480156102a957600080fd5b5061016b6102b8366004610f1e565b61091b565b6002546001600160a01b0316331461031b576002546040517f1cf993f40000000000000000000000000000000000000000000000000000000081523360048201526001600160a01b0390911660248201526044015b60405180910390fd5b61032683838361092f565b505050565b7f0000000000000000000000000000000000000000000000000000000000000000341015610385576040517f3038c00a00000000000000000000000000000000000000000000000000000000815260040160405180910390fd5b6000600554600160a01b900460ff1660018111156103a5576103a5610cbf565b146103dc576040517fd24a271400000000000000000000000000000000000000000000000000000000815260040160405180910390fd5b6003805460018101825560009182527fc2575a0e9e593c00f959f8c92f12db2869c3395a3b0502d05e2516446f71f85b0180546001600160a01b0319163390811790915560405190917f634f3211e3a4e43fee5a21ad9f87ca153b300fc78b1c557a2057dbe9c63bcb4791a2565b600061046460405180602001604052806000815250610676565b509050806104d357600354600554479190600160a01b900460ff16600181111561049057610490610cbf565b6040517f584327aa000000000000000000000000000000000000000000000000000000008152600481019390935260248301919091526044820152606401610312565b600580547fffffffffffffffffffffff00ffffffffffffffffffffffffffffffffffffffff16600160a01b1790556040805160c0810182527f000000000000000000000000000000000000000000000000000000000000000081527f00000000000000000000000000000000000000000000000000000000000000006020808301919091526003828401527f000000000000000000000000000000000000000000000000000000000000000063ffffffff16606083015260016080830152825190810190925260008083529160a08201906105ad90610aa2565b90526002546040517f9b1c385e0000000000000000000000000000000000000000000000000000000081529192506000916001600160a01b0390911690639b1c385e906105fe908590600401610f67565b6020604051808303816000875af115801561061d573d6000803e3d6000fd5b505050506040513d601f19601f820116820180604052508101906106419190610fc4565b60405190915081907fcd6e45c8998311cab7e9d4385596cac867e20a0587194b954fa3a731c93ce78b90600090a25050505050565b6000606060007f0000000000000000000000000000000000000000000000000000000000000000600454426106ab9190610fdd565b10159050600080600554600160a01b900460ff1660018111156106d0576106d0610cbf565b600354911491504715159015158380156106e75750825b80156106f05750815b80156106f95750805b604080516020810190915260008152909890975095505050505050565b6001546001600160a01b031633146107705760405162461bcd60e51b815260206004820152601660248201527f4d7573742062652070726f706f736564206f776e6572000000000000000000006044820152606401610312565b60008054336001600160a01b0319808316821784556001805490911690556040516001600160a01b0390921692909183917f8be0079c531659141344cd1fd0a4f28419497f9722a3daafe3b4186f6b6457e091a350565b6000546001600160a01b031633148015906107ed57506002546001600160a01b03163314155b1561085757336108056000546001600160a01b031690565b6002546040517f061db9c10000000000000000000000000000000000000000000000000000000081526001600160a01b0393841660048201529183166024830152919091166044820152606401610312565b6001600160a01b038116610897576040517fd92e233d00000000000000000000000000000000000000000000000000000000815260040160405180910390fd5b600280546001600160a01b0319166001600160a01b0383169081179091556040519081527fd1a6a14209a385a964d036e404cb5cfb71f4000cdb03c9366292430787261be69060200160405180910390a150565b60006003828154811061090057610900611004565b6000918252602090912001546001600160a01b031692915050565b610923610b40565b61092c81610b9c565b50565b6003546000908383838161094557610945611004565b90506020020135610956919061101a565b905060006003828154811061096d5761096d611004565b600091825260208083209190910154600580547fffffffffffffffffffffff000000000000000000000000000000000000000000166001600160a01b039092169182179055604080519384529183019182905291519192506109d29160039190610c45565b50426004556040516000906001600160a01b0383169047908381818185875af1925050503d8060008114610a22576040519150601f19603f3d011682016040523d82523d6000602084013e610a27565b606091505b5050905080610a62576040517fa1d04b3900000000000000000000000000000000000000000000000000000000815260040160405180910390fd5b6005546040516001600160a01b03909116907f5b690ec4a06fe979403046eaeea5b3ce38524683c3001f662c8b5a829632f7df90600090a2505050505050565b60607f92fd13387c7fe7befbc38d303d6468778fb9731bc4583f17d92989c6fcfdeaaa82604051602401610adb91511515815260200190565b60408051601f198184030181529190526020810180517bffffffffffffffffffffffffffffffffffffffffffffffffffffffff167fffffffff000000000000000000000000000000000000000000000000000000009093169290921790915292915050565b6000546001600160a01b03163314610b9a5760405162461bcd60e51b815260206004820152601660248201527f4f6e6c792063616c6c61626c65206279206f776e6572000000000000000000006044820152606401610312565b565b336001600160a01b03821603610bf45760405162461bcd60e51b815260206004820152601760248201527f43616e6e6f74207472616e7366657220746f2073656c660000000000000000006044820152606401610312565b600180546001600160a01b0319166001600160a01b0383811691821790925560008054604051929316917fed8889f560326eb138920d842192f0eb3dd22b4f139c87a2c57538e05bae12789190a350565b828054828255906000526020600020908101928215610c9a579160200282015b82811115610c9a57825182546001600160a01b0319166001600160a01b03909116178255602090920191600190910190610c65565b50610ca6929150610caa565b5090565b5b80821115610ca65760008155600101610cab565b634e487b7160e01b600052602160045260246000fd5b6020810160028310610cf757634e487b7160e01b600052602160045260246000fd5b91905290565b600080600060408486031215610d1257600080fd5b83359250602084013567ffffffffffffffff80821115610d3157600080fd5b818601915086601f830112610d4557600080fd5b813581811115610d5457600080fd5b8760208260051b8501011115610d6957600080fd5b6020830194508093505050509250925092565b60008060208385031215610d8f57600080fd5b823567ffffffffffffffff80821115610da757600080fd5b818501915085601f830112610dbb57600080fd5b813581811115610dca57600080fd5b866020828501011115610ddc57600080fd5b60209290920196919550909350505050565b634e487b7160e01b600052604160045260246000fd5b600060208284031215610e1657600080fd5b813567ffffffffffffffff80821115610e2e57600080fd5b818401915084601f830112610e4257600080fd5b813581811115610e5457610e54610dee565b604051601f8201601f19908116603f01168101908382118183101715610e7c57610e7c610dee565b81604052828152876020848701011115610e9557600080fd5b826020860160208301376000928101602001929092525095945050505050565b6000815180845260005b81811015610edb57602081850181015186830182015201610ebf565b506000602082860101526020601f19601f83011685010191505092915050565b8215158152604060208201526000610f166040830184610eb5565b949350505050565b600060208284031215610f3057600080fd5b81356001600160a01b0381168114610f4757600080fd5b9392505050565b600060208284031215610f6057600080fd5b5035919050565b60208152815160208201526020820151604082015261ffff60408301511660608201526000606083015163ffffffff80821660808501528060808601511660a0850152505060a083015160c080840152610f1660e0840182610eb5565b600060208284031215610fd657600080fd5b5051919050565b81810381811115610ffe57634e487b7160e01b600052601160045260246000fd5b92915050565b634e487b7160e01b600052603260045260246000fd5b60008261103757634e487b7160e01b600052601260045260246000fd5b50069056fea26469706673582212209fd59ae20c97dfb83b462a0cb051e81d096273dd3cca01a52240fade20a1364d64736f6c63430008130033","linkReferences":{}},"methodIdentifiers":{"acceptOwnership()":"79ba5097","checkUpkeep(bytes)":"6e04ff0d","enterRaffle()":"2cfcc539","getEntranceFee()":"09bc33a7","getLastTimeStamp()":"c1c244e8","getPlayer(uint256)":"e55ae4e8","getRaffleState()":"115cbaf5","getRecentWinner()":"473f1ddc","owner()":"8da5cb5b","performUpkeep(bytes)":"4585e33b","rawFulfillRandomWords(uint256,uint256[])":"1fe543e3","s_vrfCoordinator()":"9eccacf6","setCoordinator(address)":"8ea98117","transferOwnership(address)":"f2fde38b"},"id":34}